:100000000C9412010C943A010C943A010C943A01AC
:100010000C943A010C943A010C943A010C943A0174
:100020000C943A010C943A010C94F3050C94650677
:100030000C943A010C943A010C943A010C943A0154
:100040000C943A010C943A010C943A010C943A0144
:100050000C943A010C943A010C943A010C949508D2
:100060000C943A010C943A010C943A010C943A0124
:100070000C943A010C943A010C943A010C943A0114
:100080000C943A010C943A010C943A010C943A0104
:100090000C943A010C943A010C943A010C943A01F4
:1000A0000C943A010C943A010C943A011D0320037C
:1000B0000F031303170341034103410324032803E0
:1000C0002C033203360341033C03000000002300ED
:1000D000260029002C002F000000000200090F005C
:1000E00000030401000C00000000000000000000FC
:1000F00000000000000000080B00020202010009DD
:100100000400000102020000052400100105240182
:1001100001010424020605240600010705810310DD
:10012000004009040100020A000000070502024025
:1001300000000705830240000004030904120100C7
:1001400002EF020140412336800001010203014118
:10015000726475696E6F204C4C430041726475691E
:100160006E6F204C656F6E6172646F00000000005E
:10017000250028002B002E00310000000000240084
:1001800027002A002D0030000404040404030405A1
:100190000202020204030202020206060606060624
:1001A000040402020204040408020110408040100A
:1001B000204080408008020401804020100201108D
:1001C000801020404020070605040100080A0B0C9F
:1001D0000D0905010904A101850605091901292058
:1001E000150025017501952081020501A100093046
:1001F00009310933093416008026FF7F75109504F4
:100200008102093209351580257F75089502810222
:10021000C0050109390939150125089502750481C0
:1002200002C0DF0811241FBECFEFDAE0DEBFCDBF72
:1002300011E0A0E0B1E0E0E2F7E102C005900D922C
:10024000A833B107D9F721E0A8E3B1E001C01D92BE
:10025000AF3DB207E1F711E0C2E1D1E004C0219760
:10026000FE010E94830BC131D107C9F70E944909E1
:100270000C948E0B0C940000FC01809156018111AE
:1002800003C08FEF9FEF08959FB7F89482E08093AB
:10029000E9002091F20030E01216130614F421E078
:1002A00030E02115310559F0289884E680935501F6
:1002B0008091F10080838091F200882319F09FBF24
:1002C000C90108958BE68093E800F9CF40914F0172
:1002D0005091500120914D0130914E01421753072A
:1002E000B4F49091E8009570E1F39091E80092FDEC
:1002F00019C08093F10080914F01909150010196B7
:100300008F739927892B19F48EEF8093E8008091E1
:100310004F019091500101969093500180934F01AD
:1003200081E0089580E00895CF92DF92EF92FF92EE
:100330000F931F93CF93DF931F92CDB7DEB7182F84
:10034000062FE42E862F880F8E5F99830E94660108
:1003500083E00E946601F12EC12E9981D92E8C2D49
:100360008F19801798F4F601E7FE02C0849101C04E
:1003700080810E946601182F80E00E94660181231F
:10038000FFEFCF1ADF0A8111EACF01C081E00F90A1
:10039000DF91CF911F910F91FF90EF90DF90CF9061
:1003A0000895DF92EF92FF920F931F93CF93DF9305
:1003B000D82E8A017B01E40EF51EEB01CE15DF0578
:1003C00071F0D7FE03C0FE01849101C088810E94B4
:1003D000660121968111F2CF8FEF9FEF01C0C80116
:1003E000DF91CF911F910F91FF90EF90DF900895D3
:1003F000615030F02091F100FC0120830196F8CF8C
:10040000289884E6809355010895CF92DF92EF9269
:10041000FF920F931F93CF93DF936C017A018B01AF
:10042000C0E0D0E0CE15DF0589F0D8016D918D01D7
:10043000D601ED91FC910190F081E02DC601099566
:10044000892B11F47E0102C02196ECCFC701DF9108
:10045000CF911F910F91FF90EF90DF90CF90089573
:100460008091450181110DC082E08093410184E0BB
:1004700080934201109244011092430181E08093E5
:10048000450181E491E008950F931F93CF93DF938B
:100490001F92CDB7DEB782E0898342E450E067EF78
:1004A00070E080E80E94D1010E943002DC011296C7
:1004B0000D911C9113970115110569F0D801ED916B
:1004C000FC910280F381E02DBE016F5F7F4FC80178
:1004D000099597FF07C089810F90DF91CF911F91F8
:1004E0000F910895F80100851185E5CFCF93DF9333
:1004F0001F92CDB7DEB76983DC01ED91FC910280DC
:10050000F381E02D41E050E0BE016F5F7F4F099520
:100510000F90DF91CF91089583E08093E90080915F
:10052000F200882319F08AE38093E8000895CF93BE
:10053000DF931F92CDB7DEB7FC018485958597FDCB
:1005400005C02FEF3FEF358724870BC0CE01019602
:100550000E943C01019719F4898190E002C08FEF5D
:100560009FEF0F90DF91CF9108950F931F93CF933B
:10057000DF931F92CDB7DEB78C01FC018485958592
:1005800097FF0EC0CE0101960E943C01019719F41D
:10059000298130E002C02FEF3FEFF8013587248733
:1005A000F801848595850F90DF91CF911F910F9170
:1005B0000895FC018485958597FD0BC09FB7F8943D
:1005C00082E08093E9008091F2009FBF90E0019665
:1005D00008959FB7F89482E08093E9008091F2003B
:1005E0009FBF90E0089590E0FC01E852FF4F4491D6
:1005F000FC01E955FE4F2491FC01E857FE4F849120
:10060000882309F44DC04423E1F150E0FA01319709
:10061000EF30F105B0F5EA5AFF4F0C94830B90913F
:1006200080009F7707C0909180009F7D03C09091CC
:100630008000977F9093800024C094B59F7702C07C
:1006400094B59F7D94BD1DC0909190009F7707C089
:10065000909190009F7D03C090919000977F909320
:1006600090000FC09091C0009F7703C09091C00090
:100670009F7D9093C00005C09091C200977F90939A
:10068000C200E82FF0E0EE0FFF1FE653FF4FA591E9
:10069000B491EC912E2381E090E021F480E0089564
:1006A00080E090E008953FB7F89480913D019091EB
:1006B0003E01A0913F01B091400126B5A89B05C025
:1006C0002F3F19F00196A11DB11D3FBFBA2FA92FD1
:1006D000982F8827820F911DA11DB11DBC01CD014E
:1006E00042E0660F771F881F991F4A95D1F708953A
:1006F0008F929F92AF92BF92CF92DF92EF92FF9232
:100700006B017C010E9453034B015C01C114D104B5
:10071000E104F104F1F00E945303DC01CB018819DC
:100720009909AA09BB09883E9340A105B10570F358
:1007300021E0C21AD108E108F10888EE880E83E0B2
:10074000981EA11CB11CC114D104E104F10419F7D5
:10075000DDCFFF90EF90DF90CF90BF90AF909F9054
:100760008F9008956F927F929F92AF92BF92CF9297
:10077000DF92EF92FF920F931F93CF93DF9300D0FE
:100780001F92CDB7DEB7382F8B01809156018111B2
:1007900003C08FEF9FEF8BC08091530180FF05C096
:1007A0008091E00082608093E0003A01F12C8AEFB2
:1007B000E82E832F8770C82E90E4B92E832F807285
:1007C000A82E832F8074982E2AE3D22E61147104F0
:1007D00009F466C08FB7F894C092E9009091E800E0
:1007E00095FF05C09091F2002B2D291B01C020E040
:1007F0008FBF211110C0EA94EE2059F261E070E041
:1008000080E090E039834A835B830E9478033981DA
:100810004A815B81DBCF822F90E0681679060CF469
:10082000262D6FB7F894C092E9008091E80085FF0B
:1008300035C0822F90E0681A790AAA2029F0215049
:10084000A8F01092F100FBCFF80137FF07C021504C
:1008500058F074917093F1003196F9CF215020F047
:1008600071917093F100FACF080F191FFF2019F052
:10087000D092E8000BC08091E80085FD09C0D092BD
:10088000E800FF24F3946114710441F0F12C06C0D8
:100890006114710419F49110D092E8006FBF96CFE3
:1008A000F11098CF5D9884E680935101CA010F90B2
:1008B0000F900F90DF91CF911F910F91FF90EF90CC
:1008C000DF90CF90BF90AF909F907F906F900895F2
:1008D000CF93DF93EC0180911201882331F083E004
:1008E0000E94B2031816190634F081E090E09B8351
:1008F0008A8380E090E0DF91CF910895CF93DF93DA
:10090000EC0181E08C838D839E01265F3F4F3F8306
:100910002E831986188627E131E0398328831C86C7
:100920001B861E861D868F87888B81EC8A870E9496
:100930003002FC0121818C8190E0820F911D08978B
:100940008CF5A281B381109719F4D383C2830CC0B4
:1009500018968D919C911997009711F0DC01F8CFB2
:100960001996DC93CE93189780818A8381818B833B
:1009700090818D81890F808380E09C81891790F41C
:100980009181A92FB0E0AD0140505F4F2E813F8192
:10099000280F311DD9012C91DA012C939F5F91838F
:1009A0008F5FEBCFDF91CF910895DC01FB011296B1
:1009B0008C91129790E02481358182179307D1F4AE
:1009C00091818081813A31F481E0913091F09330CE
:1009D00089F411C0813271F49B3021F482811F9619
:1009E0008C9305C09A3031F4828150968C9381E0CB
:1009F0000895089580E00895DC01FB0188E4808378
:100A000089E4818384E482831D969C911D979F7065
:100A10009F5B93831D968D919C911E9724E09695E4
:100A200087952A95E1F78F708F5B848385E0089521
:100A3000EF92FF920F931F93CF93DF93FB012081DF
:100A4000213851F52381223239F5DC0112962C919F
:100A500030E04481558142175307F1F4EC010B85D6
:100A60001C85E12CF12C0115110591F0F801448150
:100A700055816281738180E80E94D1018F3FFFEF31
:100A80009F0769F0E80EF91ED8010D911C91EBCF7C
:100A900081E08F87C70105C080E090E002C08FEF42
:100AA0009FEFDF91CF911F910F91FF90EF900895ED
:100AB000CF93DF93CDB7DEB769970FB6F894DEBF5B
:100AC0000FBECDBFFC01DB018C918F5F8C93BE010B
:100AD0006F5F7F4F89E1DB011D928A95E9F729E07D
:100AE000298384E08A8391E09D8383E08E832A8733
:100AF00021E22B879C879D879F8722E2288B27E016
:100B00002B8B25E02C8B8E8B20E430E0388F2F8BC5
:100B1000998F82818B8395858685998B8A8B83813A
:100B200080688D8B49E150E080E00E94D101699698
:100B30000FB6F894DEBF0FBECDBFDF91CF91089501
:100B4000FC0182818F5BFB01808381E00895EF923D
:100B5000FF920F931F93CF93DF931F92CDB7DEB712
:100B60008B017A018091B801811107C087EA91E079
:100B70000E947E0481E08093B80186E0898341E091
:100B800050E0BE016F5F7F4F8091AA010E94B203C7
:100B900097FD07C08091AA01A701B80180640E9457
:100BA000B2030F90DF91CF911F910F91FF90EF90C3
:100BB0000895BC01009791F0FC0101900020E9F735
:100BC0003197AF01481B590BE0915701F091580143
:100BD0000280F381E02D87E591E0099480E090E0C8
:100BE00008950E94890B1F920F920FB60F92112445
:100BF0008F939F938091E1009091E100937F909378
:100C0000E10083FF0FC01092E90091E09093EB00A8
:100C10001092EC0092E39093ED001092560198E050
:100C20009093F00082FF20C093E09093E9009091B0
:100C3000F200992319F09AE39093E8009091510102
:100C4000992339F09091510191509093510199233A
:100C500089F190915501992339F090915501915066
:100C600090935501992341F184FF10C08091E200D7
:100C70008E7E81608093E2008091E1008F7E809380
:100C8000E100809153018E7E806111C080FF16C00B
:100C90008091E2008E7E80618093E2008091E1008D
:100CA0008E7E8093E100809153018E7E81608093DF
:100CB000530104C05D9ACDCF289AD6CF9F918F91D2
:100CC0000F900FBE0F901F9018951F920F920FB6A6
:100CD0000F921124CF92DF92EF92FF920F931F9306
:100CE0002F933F934F935F936F937F938F939F9334
:100CF000AF93BF93EF93FF93CF93DF93CDB7DEB75F
:100D00006C97DEBFCDBF1092E9008091E80083FFB1
:100D1000EDC168E0CE0145960E94F80182EF809314
:100D2000E8008D8987FF05C09091E80090FFFCCF17
:100D300003C09EEF9093E800982F907609F0C6C00C
:100D40009E892F89188D91110CC0803829F48091CB
:100D500054018093F10002C01092F1001092F10052
:100D600048C1422F50E0512B913051F4811141C1C3
:100D70004130510509F03DC1809154018D7F0BC078
:100D8000933061F4811135C14130510509F031C111
:100D9000809154018260809354012BC1953041F4BD
:100DA0008091E80080FFFCCF20682093E30021C100
:100DB000963009F05FC0EB8CFC8C1092E900109229
:100DC000500110924F01123091F510924E01109285
:100DD0004D010E94440299E0BE016F5F7F4FDB012D
:100DE000E92F1D92EA95E9F799831A8391E09E8392
:100DF00090EA98879AEF998720914F01309150019E
:100E0000275F3F4F3C832B838D831092E900109224
:100E1000500110924F01F0924E01E0924D0149E0D5
:100E200050E080E00E94D1010E944402E2C0F092B2
:100E30004E01E0924D010E943002DC011296ED90CD
:100E4000FC901397E114F10409F4C0C0D701ED91AF
:100E5000FC910480F581E02DBE016B5E7F4FC701E0
:100E60000995009719F00CF0C4C0C7C0F701E084E1
:100E7000F184E8CF973009F4C0C0983021F481E0C4
:100E80008093F100B6C0993009F0B3C0837009F0C7
:100E9000B4C0E1E0F1E081E021E036E39081992304
:100EA00061F08093E9002093EB0091919093EC0026
:100EB0003093ED008F5F873089F78EE78093EA00EB
:100EC0001092EA008F898093560193C08B8D9C8D80
:100ED0001092E9001092500110924F0190934E0130
:100EE00080934D01898D811156C08E899D89913ADB
:100EF00059F4813209F081C047E050E06BE071E0C5
:100F000080E00E94D10175C0913209F076C0833231
:100F100089F4888D90E0982F88272F89822BA0E074
:100F2000B0E08093070190930801A0930901B0936A
:100F30000A015FC0803269F48091E80082FFFCCF33
:100F400067E08BE091E00E94F8018BEF8093E8006E
:100F500006C0823209F04DC08F89809312018091C2
:100F60005201882319F0EEEFFAE002C0E0E0F8E069
:100F700080910B0190910C01A0910D01B0910E0197
:100F8000803B9440A105B10509F07BC0809112011E
:100F900080FF93C076C00E943002DC0112960D9152
:100FA0001C9113970115110541F1D801ED91FC91A8
:100FB0000190F081E02DBE016B5E7F4FC801099565
:100FC000811117C0F80100851185ECCF113009F4AB
:100FD0004EC0133091F48F89882309F445C08230C4
:100FE00081F440E860E18BE591E00E949401882360
:100FF00021F08EEF8093E80079C081E28093EB00CE
:1010000075C0813029F440E86BE08FE491E0EDCFCA
:10101000833099F70E943002DC011296ED90FC902B
:1010200013978E010F5F1F4F6801E114F10479F0EF
:10103000D701ED91FC910680F781E02DB801C70141
:101040000995080F111DF701E084F184EECFD80156
:101050001C92F60101900020E9F73197BF016C194D
:101060007D0940E0C601C1CF69E371E002C06DE3D4
:1010700071E06115710509F2FB01449150E080E8CF
:1010800040CF0FB6F894A895809160008861809356
:101090006000109260000FBEA895EE3F2AE0F207B4
:1010A00039F08091FE0A9091FF0A91838083A1CF4D
:1010B0001092FF0A1092FE0A9CCFEE3F8AE0F807DA
:1010C00031F0808191819093FF0A8093FE0A87E737
:1010D00097E7918380839BE088E10FB6F894A89509
:1010E000809360000FBE9093600083CF6C960FB624
:1010F000F894DEBF0FBECDBFDF91CF91FF91EF918E
:10110000BF91AF919F918F917F916F915F914F911F
:101110003F912F911F910F91FF90EF90DF90CF9013
:101120000F900FBE0F901F9018951F920F920FB641
:101130000F9211242F933F938F939F93AF93BF935D
:101140008091390190913A01A0913B01B0913C010D
:101150003091380123E0230F2D3720F40196A11D93
:10116000B11D05C026E8230F0296A11DB11D2093D5
:1011700038018093390190933A01A0933B01B093D9
:101180003C0180913D0190913E01A0913F01B091C1
:1011900040010196A11DB11D80933D0190933E0138
:1011A000A0933F01B0934001BF91AF919F918F9168
:1011B0003F912F910F900FBE0F901F901895109296
:1011C0005A011092590188EE93E0A0E0B0E08093BC
:1011D0005B0190935C01A0935D01B0935E0183E29B
:1011E00091E090935801809357018FEF9FEF909378
:1011F00064018093630183E391E09093CF01809336
:10120000CE018091C601811113C01092C1011092CC
:10121000C00182ED91E09093C3018093C20180E50B
:1012200090E09093C5018093C40181E08093C60152
:101230008091B801811107C087EA91E00E947E0485
:1012400081E08093B801E091B201F091B301309751
:1012500039F480EC91E09093B3018093B2010AC01D
:1012600080819181009711F0FC01FACF80EC91E030
:10127000918380832091C4013091C5018091B40194
:101280009091B501820F931F9093B5018093B401A3
:101290000895CF93DF93CDB7DEB7A5970FB6F89437
:1012A000DEBF0FBECDBF789484B5826084BD84B5A7
:1012B000816084BD85B5826085BD85B5816085BD51
:1012C00080916E00816080936E0010928100809109
:1012D0008100826080938100809181008160809391
:1012E00081008091800081608093800080919100D6
:1012F0008260809391008091910081608093910041
:10130000809190008160809390008091C100846002
:101310008093C1008091C10082608093C100809160
:10132000C10081608093C1008091C300816080937F
:10133000C3008091C00082608093C0008091C20091
:1013400081608093C20080917A00846080937A00EB
:1013500080917A00826080937A0080917A00816027
:1013600080937A0080917A00806880937A0010924E
:10137000560110925401109253018091D700816060
:101380008093D70080EA8093D80089B5806189BDB9
:1013900089B5826089BD09B400FEFDCF61E070E0CF
:1013A00080E090E00E9478038091D8008F7C80617B
:1013B0008093D8008091E000807F8093E00080914E
:1013C000E1008E7E8093E1008DE08093E200559AEB
:1013D000209AEEEFFFE7859194918B3F9C4D19F495
:1013E00081E08093520120E030E04FEF5FEFF901A0
:1013F000E955FE4F6491F901E857FE4F8491882327
:10140000C9F090E0880F991FFC01E658FE4FA591A6
:10141000B491FC01E459FE4F059114919FB7F894E3
:101420007C91862F809587238C93D801EC916E2B2D
:101430006C939FBF50936401409363012F5F3F4FB4
:101440002E303105A1F68FE0E0EDF1E0DF011D92D5
:101450008A95E9F7E091CE01F091CF010190F081FA
:10146000E02D4FE050E060ED71E08EEC91E00995E9
:101470005AE0852E912CA12CB12C412C512C3201FB
:10148000439481E00E94F3029DA38CA380E00E941C
:10149000F3021C0182E00E94F30201E0892B09F0B3
:1014A00000E083E00E94F30211E0892B09F010E0D4
:1014B000EBECF1E0849190917B0083FBFF27F0F946
:1014C000FAA31BA22AA13BA145E0220F331F4A9594
:1014D000E1F79F7D292B20937B00877080648093A8
:1014E0007C0080917A00806480937A0080917A00F9
:1014F00086FDFCCFF0907800E090790087E591E0E0
:101500000E94D902892B09F453C087E591E00E941B
:101510009702C19709F04CC08F2D90E09E296C0175
:10152000092E000CEE08FF0897FF26C0E091570136
:10153000F09158010190F081E02D6DE287E591E096
:10154000099522273327A9012C193D094E095F0966
:1015500019A2CE0181967C01CA01B901A5019401AD
:101560000E94610B605DD7016E937D0121153105ED
:101570004105510589F715C0A701960119A2FE0181
:10158000B1967F01CA01B901A50194010E94610BC6
:10159000605DD7016E937D0121153105410551052F
:1015A00089F7C7010E94D90585E391E00E94D9051A
:1015B0008091DE01ECA1FDA1807FEF2B71F4011180
:1015C00002C0856001C086608093DE011123B1F006
:1015D0008091DE01807F84600FC0232891F4011187
:1015E00002C0816001C088608093DE01112331F068
:1015F0008091DE01807F82608093DE0103E010E055
:1016000027C0002311F08760F7CF1123A9F383606F
:10161000F3CFD301C201002E04C0880F991FAA1F67
:10162000BB1F0A94D2F780959095A095B09584231E
:101630009523A623B7238093D0019093D101A09343
:10164000D201B093D3010F5F1F4F0D301105E9F0A8
:1016500081E0800F0E94F3024091D0015091D101AE
:101660006091D2017091D301892B99F6D301C20107
:10167000002E04C0880F991FAA1FBB1F0A94D2F71F
:10168000842B952BA62BB72BD6CFE091CE01F091D2
:10169000CF010190F081E02D4FE050E060ED71E06E
:1016A0008EEC91E009956AE070E080E090E00E94A5
:1016B000780320E030E0232B09F4E3CE0E94000001
:1016C000E0CEA1E21A2EAA1BBB1BFD010DC0AA1F72
:1016D000BB1FEE1FFF1FA217B307E407F50720F09B
:1016E000A21BB30BE40BF50B661F771F881F991F16
:1016F0001A9469F760957095809590959B01AC015F
:10170000BD01CF010895EE0FFF1F0590F491E02D6C
:10171000099481E090E0F8940C948E0BF894FFCF3C
:1017200000C18081000000FFFFFFFF00E10000001A
:1017300000000000000000D50458051805FC040056
:1017400000000076026804D9029702B5028C0200FC
:08175000000000A7050D0A00CE
:00000001FF
