:100000000C9412010C943A010C943A010C943A01AC
:100010000C943A010C943A010C943A010C943A0174
:100020000C943A010C943A010C9470010C94E20186
:100030000C943A010C943A010C943A010C943A0154
:100040000C943A010C943A010C943A010C943A0144
:100050000C943A010C943A010C943A010C94CA079E
:100060000C943A010C943A010C943A010C943A0124
:100070000C943A010C943A010C943A010C943A0114
:100080000C943A010C943A010C943A010C943A0104
:100090000C943A010C943A010C943A010C943A01F4
:1000A0000C943A010C943A010C943A018E06910694
:1000B000800684068806B206B206B2069506990640
:1000C0009D06A306A706B206AD06080B00020202B3
:1000D00001000904000001020200000524001001D3
:1000E0000524010101042402060524060001070578
:1000F000810310004009040100020A000000070506
:1001000002024000000705830240000004030904C6
:1001100012010002EF02014041233680000101027A
:10012000030141726475696E6F204C4C430041724B
:100130006475696E6F204C656F6E6172646F00004C
:10014000000000250028002B002E003100000000D8
:1001500000240027002A002D0030000404040404B9
:10016000030405020202020403020202020606065A
:1001700006060604040202020404040802011040F8
:100180008040102040804080080204018040201000
:1001900002011080102040402007060504010008DD
:1001A0000A0B0C0D09000000002300260029002C7A
:1001B000002F000000000200090F000003040100EE
:1001C0000C00000000000000000000000000000023
:1001D000000005010904A10185060509190129206E
:1001E000150025017501952081020501A100093046
:1001F00009310933093416008026FF7F75109504F4
:100200008102093209351580257F75089502810222
:10021000C0050109390939150125089502750481C0
:1002200002C0C20B11241FBECFEFDAE0DEBFCDBF8C
:1002300011E0A0E0B1E0E6EBF8E102C005900D921C
:10024000A833B107D9F721E0A8E3B1E001C01D92BE
:10025000AF3DB207E1F711E0C2E1D1E004C0219760
:10026000FE010E944E0CC131D107C9F70E94DC0883
:100270000C94590C0C9400000E94540C0F931F9383
:10028000CF93DF931F92CDB7DEB782E0898342E43C
:1002900050E06AEC70E080E80E9494050E945006ED
:1002A000DC0112960D911C9113970115110569F04F
:1002B000D801ED91FC910280F381E02DBE016F5FCA
:1002C0007F4FC801099597FF07C089810F90DF9183
:1002D000CF911F910F910895F80100851185E5CF09
:1002E0001F920F920FB60F9211248F939F938091BC
:1002F000E1009091E100937F9093E10083FF0FC0B4
:100300001092E90091E09093EB001092EC0092E3E0
:100310009093ED001092560198E09093F00082FFC8
:1003200020C093E09093E9009091F200992319F096
:100330009AE39093E80090913C01992339F09091D1
:100340003C01915090933C01992389F19091550182
:10035000992339F09091550191509093550199232B
:1003600041F184FF10C08091E2008E7E8160809315
:10037000E2008091E1008F7E8093E10080913D0159
:100380008E7E806111C080FF16C08091E2008E7E5B
:1003900080618093E2008091E1008E7E8093E10095
:1003A00080913D018E7E816080933D0104C05D9A05
:1003B000CDCF289AD6CF9F918F910F900FBE0F90DF
:1003C0001F9018951F920F920FB60F921124CF9283
:1003D000DF92EF92FF920F931F932F933F934F93D0
:1003E0005F936F937F938F939F93AF93BF93EF939D
:1003F000FF93CF93DF93CDB7DEB76C97DEBFCDBF52
:100400001092E9008091E80083FFEDC168E0CE0121
:1004100045960E94430682EF8093E8008D8987FF0E
:1004200005C09091E80090FFFCCF03C09EEF909331
:10043000E800982F907609F0C6C09E892F89188D04
:1004400091110CC0803829F480913F018093F10014
:1004500002C01092F1001092F10048C1422F50E00A
:10046000512B913051F4811141C14130510509F0B6
:100470003DC180913F018D7F0BC0933061F48111AC
:1004800035C14130510509F031C180913F01826091
:1004900080933F012BC1953041F48091E80080FFAB
:1004A000FCCF20682093E30021C1963009F05FC0A3
:1004B000EB8CFC8C1092E90010923B0110923A01F7
:1004C000123091F510923901109238010E943E01CC
:1004D00099E0BE016F5F7F4FDB01E92F1D92EA9526
:1004E000E9F799831A8391E09E8390EA98879AEFBF
:1004F000998720913A0130913B01275F3F4F3C8320
:100500002B838D831092E90010923B0110923A01E7
:10051000F0923901E092380149E050E080E00E9419
:1005200094050E943E01E2C0F0923901E092380148
:100530000E945006DC011296ED90FC901397E11496
:10054000F10409F4C0C0D701ED91FC910480F5815C
:10055000E02DBE016B5E7F4FC7010995009719F032
:100560000CF0C4C0C7C0F701E084F184E8CF973035
:1005700009F4C0C0983021F481E08093F100B6C046
:10058000993009F0B3C0837009F0B4C0E1E0F1E044
:1005900081E021E036E39081992361F08093E900C6
:1005A0002093EB0091919093EC003093ED008F5FDE
:1005B000873089F78EE78093EA001092EA008F89EE
:1005C0008093560193C08B8D9C8D1092E900109200
:1005D0003B0110923A019093390180933801898D43
:1005E000811156C08E899D89913A59F4813209F062
:1005F00081C047E050E06BE071E080E00E9494052C
:1006000075C0913209F076C0833289F4888D90E00C
:10061000982F88272F89822BA0E0B0E080930701D4
:1006200090930801A0930901B0930A015FC0803242
:1006300069F48091E80082FFFCCF67E08BE091E0F5
:100640000E9443068BEF8093E80006C0823209F0D7
:100650004DC08F898093120180913E01882319F04B
:10066000EEEFFAE002C0E0E0F8E080910B0190913B
:100670000C01A0910D01B0910E01803B9440A105A9
:10068000B10509F07BC08091120180FF93C076C054
:100690000E945006DC0112960D911C9113970115D2
:1006A000110541F1D801ED91FC910190F081E02D0F
:1006B000BE016B5E7F4FC8010995811117C0F8011B
:1006C00000851185ECCF113009F44EC0133091F440
:1006D0008F89882309F445C0823081F440E860E1C5
:1006E0008EE291E00E945705882321F08EEF8093DF
:1006F000E80079C081E28093EB0075C0813029F475
:1007000040E86BE082E291E0EDCF833099F70E9400
:100710005006DC011296ED90FC9013978E010F5F4E
:100720001F4F6801E114F10479F0D701ED91FC91BC
:100730000680F781E02DB801C7010995080F111D4A
:10074000F701E084F184EECFD8011C92F60101900C
:100750000020E9F73197BF016C197D0940E0C6011F
:10076000C1CF6CE071E002C060E171E0611571051C
:1007700009F2FB01449150E080E840CF0FB6F894B5
:10078000A89580916000886180936000109260005D
:100790000FBEA895EE3F2AE0F20739F08091FE0ADD
:1007A0009091FF0A91838083A1CF1092FF0A10924B
:1007B000FE0A9CCFEE3F8AE0F80731F080819181FC
:1007C0009093FF0A8093FE0A87E797E791838083DF
:1007D0009BE088E10FB6F894A895809360000FBE67
:1007E0009093600083CF6C960FB6F894DEBF0FBE77
:1007F000CDBFDF91CF91FF91EF91BF91AF919F91CD
:100800008F917F916F915F914F913F912F911F91A8
:100810000F91FF90EF90DF90CF900F900FBE0F9051
:100820001F90189540913A0150913B012091380159
:100830003091390142175307B4F49091E800957054
:10084000E1F39091E80092FD19C08093F10080914E
:100850003A0190913B0101968F739927892B19F4E6
:100860008EEF8093E80080913A0190913B010196D0
:1008700090933B0180933A0181E0089580E00895D0
:10088000CF92DF92EF92FF920F931F93CF93DF935C
:100890006C017A018B01C0E0D0E0CE15DF0589F054
:1008A000D8016D918D01D601ED91FC910190F081FF
:1008B000E02DC6010995892B11F47E0102C0219615
:1008C000ECCFC701DF91CF911F910F91FF90EF9077
:1008D000DF90CF900895CF93DF931F92CDB7DEB70F
:1008E0006983DC01ED91FC910280F381E02D41E010
:1008F00050E0BE016F5F7F4F09950F90DF91CF9160
:10090000089583E08093E9008091F200882319F034
:100910008AE38093E8000895FC018485958597FD1E
:100920000BC09FB7F89482E08093E9008091F200B9
:100930009FBF90E0019608959FB7F89482E080935E
:10094000E9008091F2009FBF90E008953FB7F894CE
:100950008091450190914601A0914701B0914801D5
:1009600026B5A89B05C02F3F19F00196A11DB11D0A
:100970003FBFBA2FA92F982F8827820F911DA11D45
:10098000B11DBC01CD0142E0660F771F881F991F82
:100990004A95D1F70895DC01FB0112968C911297CC
:1009A00090E02481358182179307D1F49181808171
:1009B000813A31F481E0913091F0933089F411C0A3
:1009C000813271F49B3021F482811F968C9305C093
:1009D0009A3031F4828150968C9381E00895089585
:1009E00080E00895DC01FB0188E4808389E4818351
:1009F00084E482831D969C911D979F709F5B9383D7
:100A00001D968D919C911E9724E0969587952A9529
:100A1000E1F78F708F5B848385E00895FC0182810C
:100A20008F5BFB01808381E008950F931F93CF9329
:100A3000DF931F92CDB7DEB78C01FC0184859585CD
:100A400097FF0EC0CE0101960E94B208019719F4DB
:100A5000298130E002C02FEF3FEFF801358724876E
:100A6000F801848595850F90DF91CF911F910F91AB
:100A70000895CF93DF931F92CDB7DEB7FC01848535
:100A8000958597FD05C02FEF3FEF358724870BC075
:100A9000CE0101960E94B208019719F4898190E075
:100AA00002C08FEF9FEF0F90DF91CF910895CF920B
:100AB000DF92EF92FF920F931F93CF93DF931F92DA
:100AC000CDB7DEB7182F062FE42E862F880F8E5F46
:100AD00099830E94120483E00E941204F12EC12E19
:100AE0009981D92E8C2D8F19801798F4F601E7FE85
:100AF00002C0849101C080810E941204182F80E0FE
:100B00000E9412048123FFEFCF1ADF0A8111EACF7E
:100B100001C081E00F90DF91CF911F910F91FF9065
:100B2000EF90DF90CF900895DF92EF92FF920F93B6
:100B30001F93CF93DF93D82E8A017B01E40EF51E1D
:100B4000EB01CE15DF0571F0D7FE03C0FE018491E5
:100B500001C088810E94120421968111F2CF8FEF8B
:100B60009FEF01C0C801DF91CF911F910F91FF90BE
:100B7000EF90DF900895EF92FF920F931F93CF9322
:100B8000DF93FB012081213851F52381223239F591
:100B9000DC0112962C9130E04481558142175307B5
:100BA000F1F4EC010B851C85E12CF12C01151105EC
:100BB00091F0F801448155816281738180E80E943F
:100BC00094058F3FFFEF9F0769F0E80EF91ED801EB
:100BD0000D911C91EBCF81E08F87C70105C080E0AC
:100BE00090E002C08FEF9FEFDF91CF911F910F91A7
:100BF000FF90EF900895CF93DF93CDB7DEB769975D
:100C00000FB6F894DEBF0FBECDBFFC01DB018C91A7
:100C10008F5F8C93BE016F5F7F4F89E1DB011D9277
:100C20008A95E9F729E0298384E08A8391E09D830E
:100C300083E08E832A8721E22B879C879D879F876D
:100C400022E2288B27E02B8B25E02C8B8E8B20E457
:100C500030E0388F2F8B998F82818B8395858685A5
:100C6000998B8A8B838180688D8B49E150E080E08D
:100C70000E94940569960FB6F894DEBF0FBECDBFF3
:100C8000DF91CF910895615030F02091F100FC0187
:100C900020830196F8CF289884E680935501089523
:100CA00080914D0181110DC082E08093490184E063
:100CB00080934A0110924C0110924B0181E0809385
:100CC0004D0189E491E0089590E0FC01ED54FE4F60
:100CD0004491FC01E658FE4F2491FC01E55AFE4F79
:100CE0008491882309F44DC04423E1F150E0FA01D6
:100CF0003197EF30F105B0F5EA5AFF4F0C944E0CE6
:100D0000909180009F7707C0909180009F7D03C0E5
:100D100090918000977F9093800024C094B59F7736
:100D200002C094B59F7D94BD1DC0909190009F77A7
:100D300007C0909190009F7D03C090919000977F95
:100D4000909390000FC09091C0009F7703C0909146
:100D5000C0009F7D9093C00005C09091C200977F16
:100D60009093C200E82FF0E0EE0FFF1FEB55FE4F0F
:100D7000A591B491EC912E2381E090E021F480E0E4
:100D8000089580E090E008958F929F92AF92BF9275
:100D9000CF92DF92EF92FF926B017C010E94A6043A
:100DA0004B015C01C114D104E104F104F1F00E9493
:100DB000A604DC01CB0188199909AA09BB09883E60
:100DC0009340A105B10570F321E0C21AD108E108F2
:100DD000F10888EE880E83E0981EA11CB11CC11496
:100DE000D104E104F10419F7DDCFFF90EF90DF901B
:100DF000CF90BF90AF909F908F9008956F927F9209
:100E00009F92AF92BF92CF92DF92EF92FF920F9399
:100E10001F93CF93DF9300D01F92CDB7DEB7382F4B
:100E20008B0180915601811103C08FEF9FEF8BC022
:100E300080913D0180FF05C08091E0008260809339
:100E4000E0003A01F12C8AEFE82E832F8770C82E3C
:100E500090E4B92E832F8072A82E832F8074982E51
:100E60002AE3D22E6114710409F466C08FB7F89496
:100E7000C092E9009091E80095FF05C09091F200C2
:100E80002B2D291B01C020E08FBF211110C0EA9437
:100E9000EE2059F261E070E080E090E039834A830F
:100EA0005B830E94C40639814A815B81DBCF822F3C
:100EB00090E0681679060CF4262D6FB7F894C0926E
:100EC000E9008091E80085FF35C0822F90E0681A24
:100ED000790AAA2029F02150A8F01092F100FBCF46
:100EE000F80137FF07C0215058F074917093F1005A
:100EF0003196F9CF215020F071917093F100FACF23
:100F0000080F191FFF2019F0D092E8000BC0809144
:100F1000E80085FD09C0D092E800FF24F394611435
:100F2000710441F0F12C06C06114710419F49110A0
:100F3000D092E8006FBF96CFF11098CF5D9884E60D
:100F400080933C01CA010F900F900F90DF91CF91D9
:100F50001F910F91FF90EF90DF90CF90BF90AF90D7
:100F60009F907F906F900895CF93DF93EC018091D5
:100F70001201882331F083E00E94FE06181619063C
:100F800034F081E090E09B838A8380E090E0DF9101
:100F9000CF9108951F920F920FB60F9211242F93A5
:100FA0003F938F939F93AF93BF9380914101909113
:100FB0004201A0914301B09144013091400123E0EE
:100FC000230F2D3720F40196A11DB11D05C026E881
:100FD000230F0296A11DB11D209340018093410172
:100FE00090934201A0934301B09344018091450145
:100FF00090914601A0914701B09148010196A11D31
:10100000B11D8093450190934601A0934701B09391
:101010004801BF91AF919F918F913F912F910F9078
:101020000FBE0F901F901895CF93DF93EC0181E0D6
:101030008C838D839E01265F3F4F3F832E831986CD
:10104000188627E131E0398328831C861B861E869B
:101050001D868F87888B81EC8A870E945006FC0151
:1010600021818C8190E0820F911D089774F5A281F7
:10107000B381109719F4D383C2830CC018968D9155
:101080009C911997009711F0DC01F8CF1996DC9329
:10109000CE93189780818A8381818B8390818D8103
:1010A000890F808380E09C81891778F4AE81BF81AD
:1010B000A80FB11D9C91A181B0E0A050BF4F9C939F
:1010C00091819F5F91838F5FEECFDF91CF910895E4
:1010D000EF92FF920F931F93CF93DF931F92CDB7A1
:1010E000DEB78B017A018091B801811107C087EAD0
:1010F00091E00E94140881E08093B80186E0898322
:1011000041E050E0BE016F5F7F4F8091AA010E94D5
:10111000FE0697FD07C08091AA01A701B80180646F
:101120000E94FE060F90DF91CF911F910F91FF90CB
:10113000EF900895BC01009791F0FC010190002010
:10114000E9F73197AF01481B590BE0915701F09136
:1011500058010280F381E02D87E591E0099480E059
:1011600090E00895FC0180915601811103C08FEF3A
:101170009FEF08959FB7F89482E08093E900209153
:10118000F20030E01216130614F421E030E02115CD
:10119000310559F0289884E6809355018091F1003B
:1011A00080838091F200882319F09FBFC9010895C0
:1011B0008BE68093E800F9CFCF93DF93CDB7DEB70E
:1011C000E5970FB6F894DEBF0FBECDBF789484B517
:1011D000826084BD84B5816084BD85B5826085BD33
:1011E00085B5816085BD80916E00816080936E00C1
:1011F00010928100809181008260809381008091B3
:101200008100816080938100809180008160809363
:101210008000809191008260809391008091910084
:101220008160809391008091900081608093900014
:101230008091C10084608093C1008091C100826070
:101240008093C1008091C10081608093C100809132
:10125000C30081608093C3008091C000826080934E
:10126000C0008091C20081608093C20080917A00AA
:10127000846080937A0080917A00826080937A0003
:1012800080917A00816080937A0080917A008068F2
:1012900080937A001092560110923F0110923D0106
:1012A0008091D70081608093D70080EA8093D80036
:1012B00089B5806189BD89B5826089BD09B400FEA8
:1012C000FDCF61E070E080E090E00E94C406809174
:1012D000D8008F7C80618093D8008091E000807F6F
:1012E0008093E0008091E1008E7E8093E1008DE0AC
:1012F0008093E200559A209AEEEFFFE78591949152
:101300008B3F9C4D19F481E080933E0140E050E01A
:10131000FA01E658FE4F2491FA01E55AFE4F8491F6
:101320008823C9F090E0880F991FFC01E35BFE4F12
:10133000A591B491FC01E15CFE4F659174919FB75A
:10134000F8943C91822F809583238C93DB01EC9160
:101350002E2B2C939FBF4F5F5F4F4E305105C1F630
:101360008FEF9FEF90936401809363018FE0E2EC35
:10137000F1E0DF011D928A95E9F7E091C001F0915B
:10138000C1010190F081E02D4FE050E062EC71E08E
:1013900080EC91E009955AE0452E512C612C712C7E
:1013A00081E00E9464064C0180E00E9464065C01BA
:1013B00082E00E94640601E0892B09F000E083E0EE
:1013C0000E94640611E0892B09F010E084E00E947D
:1013D00064069DA38CA38CE00E9464069FA38EA349
:1013E00088E00E94640699A788A786E00E946406A8
:1013F0009BA78AA785E00E9464069DA78CA78DE025
:101400000E9464069FA78EA787E00E94640699AB9E
:1014100088AB8BE00E9464061C0189E00E94640690
:101420009BAB8AAB8AE00E9464069DAB8CABEEE975
:10143000F1E0849190917B0083FBFF27F0F9FAA300
:101440001BA22AA13BA145E0220F331F4A95E1F7D9
:101450009F7D292B20937B008770806480937C0084
:1014600080917A00806480937A0080917A0086FD72
:10147000FCCFF0907800E090790087E591E00E9441
:101480008C04892B09F453C087E591E00E9439054B
:10149000C19709F04CC08F2D90E09E296C01092E58
:1014A000000CEE08FF0897FF26C0E0915701F0916D
:1014B00058010190F081E02D6DE287E591E00995FA
:1014C00022273327A9012C193D094E095F0919A2CA
:1014D000CE0181967C01CA01B901A30192010E944B
:1014E0002C0C605DD7016E937D01211531054105FE
:1014F000510589F715C0A701960119A2FE01B19601
:101500007F01CA01B901A30192010E942C0C605D08
:10151000D7016E937D01211531054105510589F7EC
:10152000C7010E949A0885E391E00E949A08809181
:10153000D001807F892871F4011102C0856001C04B
:1015400086608093D0011123E9F08091D001807FE3
:10155000846016C0AB2871F4011102C0816001C023
:1015600088608093D001112369F08091D001807F41
:10157000826006C0002311F0876002C011118360F1
:101580008093D0018091C2019091C301A091C401C8
:10159000B091C501ECA1FDA1EF2B11F4816001C058
:1015A0008E7F8093C2019093C301A093C401B09336
:1015B000C5018091C2019091C301A091C401B09175
:1015C000C5012EA13FA1232B11F4826001C08D7FA4
:1015D0008093C2019093C301A093C401B093C5014D
:1015E0008091C2019091C301A091C401B091C50145
:1015F000E8A5F9A5EF2B11F4846001C08B7F8093DF
:10160000C2019093C301A093C401B093C50180911E
:10161000C2019091C301A091C401B091C5012AA556
:101620003BA5232B11F4886001C0877F8093C20102
:101630009093C301A093C401B093C5018091C201EE
:101640009091C301A091C401B091C501ECA5FDA585
:10165000EF2B11F4806101C08F7E8093C2019093C3
:10166000C301A093C401B093C5018091C2019091C0
:10167000C301A091C401B091C5012EA53FA5232BA4
:1016800011F4806201C08F7D8093C2019093C301E9
:10169000A093C401B093C5018091C2019091C30190
:1016A000A091C401B091C501E8A9F9A9EF2B11F4EB
:1016B000806401C08F7B8093C2019093C301A0938B
:1016C000C401B093C5018091C2019091C301A09162
:1016D000C401B091C501232811F4806801C08F773F
:1016E0008093C2019093C301A093C401B093C5013C
:1016F0008091C2019091C301A091C401B091C50134
:101700002AA93BA9232B11F4916001C09E7F8093ED
:10171000C2019093C301A093C401B093C50180910D
:10172000C2019091C301A091C401B091C501ECA97F
:10173000FDA9EF2B11F4926001C09D7F8093C2013F
:101740009093C301A093C401B093C501E091C0017F
:10175000F091C1010190F081E02D4FE050E062EC8A
:1017600071E080EC91E0099564E670E080E090E043
:101770000E94C40620E030E0232B09F411CE0E9421
:1017800000000ECE10925A011092590188EE93E09B
:10179000A0E0B0E080935B0190935C01A0935D01B9
:1017A000B0935E0183E291E09093580180935701DA
:1017B0008FEF9FEF909364018093630183E391E047
:1017C0009093C1018093C0018091D701811113C012
:1017D0001092D2011092D10182ED91E09093D40148
:1017E0008093D30180E590E09093D6018093D5015A
:1017F00081E08093D7018091B801811107C087EA09
:1018000091E00E94140881E08093B801E091B20158
:10181000F091B301309739F481ED91E09093B301E9
:101820008093B2010AC080819181009711F0FC0180
:10183000FACF81ED91E0918380832091D5013091A1
:10184000D6018091B4019091B501820F931F9093BE
:10185000B5018093B4010895A1E21A2EAA1BBB1B07
:10186000FD010DC0AA1FBB1FEE1FFF1FA217B3076C
:10187000E407F50720F0A21BB30BE40BF50B661F82
:10188000771F881F991F1A9469F760957095809546
:1018900090959B01AC01BD01CF010895EE0FFF1F94
:1018A0000590F491E02D099481E090E0F8940C9477
:0618B000590CF894FFCF73
:1018B60000C18081000000FFFFFFFF00E100000083
:1018C60000000000000000CB04FB05BB05F204008D
:1018D6000000006B04B4078C04390515058104006B
:0818E60000000068080D0A0073
:00000001FF
