:100000000C9412010C943A010C943A010C943A01AC
:100010000C943A010C943A010C943A010C943A0174
:100020000C943A010C943A010C94C0030C943204E1
:100030000C943A010C943A010C943A010C943A0154
:100040000C943A010C943A010C943A010C943A0144
:100050000C943A010C943A010C943A010C942F0838
:100060000C943A010C943A010C943A010C943A0124
:100070000C943A010C943A010C943A010C943A0114
:100080000C943A010C943A010C943A010C943A0104
:100090000C943A010C943A010C943A010C943A01F4
:1000A0000C943A010C943A010C943A018C068F0698
:1000B0007E0682068606B006B006B0069306970650
:1000C0009B06A106A506B006AB06070605040100BF
:1000D000080A0B0C0D0900000000250028002B0069
:1000E0002E00310000000000240027002A002D000F
:1000F0003000000000002300260029002C002F0003
:1001000004040404040304050202020204030202BC
:10011000020206060606060604040202020404049D
:1001200008020110408040102040804080080204F6
:10013000018040201002011080102040402000006B
:10014000000200090F0000030401000C0000000081
:1001500000000000000000000000000000080B008C
:10016000020202010009040000010202000005244D
:1001700000100105240101010424020605240600E3
:10018000010705810310004009040100020A000074
:10019000000705020240000007058302400000043A
:1001A00003090412010002EF0201404123368000DE
:1001B000010102030141726475696E6F204C4C436A
:1001C0000041726475696E6F204C656F6E61726478
:1001D0006F0005010904A1018506050919012920FF
:1001E000150025017501952081020501A100093046
:1001F00009310933093416008026FF7F75109504F4
:100200008102093209351580257F75089502810222
:10021000C0050109390939150125089502750481C0
:1002200002C0F20C11241FBECFEFDAE0DEBFCDBF5B
:1002300011E0A0E0B1E0E2E5FEE102C005900D9220
:10024000A833B107D9F721E0A8E3B1E001C01D92BE
:10025000AF3EB207E1F711E0C2E1D1E004C021975F
:10026000FE010E94210FC131D107C9F70E94410947
:100270000C94270F0C94000040914F0150915001B5
:1002800020914D0130914E0142175307B4F49091E3
:10029000E8009570E1F39091E80092FD19C0809319
:1002A000F10080914F019091500101968F73992731
:1002B000892B19F48EEF8093E80080914F01909183
:1002C000500101969093500180934F0181E0089571
:1002D00080E00895CF92DF92EF92FF920F931F93E9
:1002E000CF93DF931F92CDB7DEB7182F062FE42EE2
:1002F000862F880F8E5F99830E943C0183E00E94C5
:100300003C01F12EC12E9981D92E8C2D8F19801789
:1003100098F4F601E7FE02C0849101C080810E943A
:100320003C01182F80E00E943C018123FFEFCF1A8F
:10033000DF0A8111EACF01C081E00F90DF91CF91F8
:100340001F910F91FF90EF90DF90CF900895DF9273
:10035000EF92FF920F931F93CF93DF93D82E8A01D2
:100360007B01E40EF51EEB01CE15DF0571F0D7FE23
:1003700003C0FE01849101C088810E943C01219646
:100380008111F2CF8FEF9FEF01C0C801DF91CF91B4
:100390001F910F91FF90EF90DF900895615030F022
:1003A0002091F100FC0120830196F8CF289884E683
:1003B000809365010895CF92DF92EF92FF920F93A1
:1003C0001F93CF93DF936C017A018B01C0E0D0E0E3
:1003D000CE15DF0589F0D8016D918D01D601ED9123
:1003E000FC910190F081E02DC6010995892B11F453
:1003F0007E0102C02196ECCFC701DF91CF911F9102
:100400000F91FF90EF90DF90CF900895809145017C
:1004100081110DC082E08093410184E0809342010C
:10042000109244011092430181E08093450181E4E0
:1004300091E008950F931F93CF93DF931F92CDB751
:10044000DEB782E0898342E450E06DE571E080E848
:100450000E94A7010E940602DC0112960D911C91D8
:1004600013970115110569F0D801ED91FC910280F7
:10047000F381E02DBE016F5F7F4FC801099597FFA3
:1004800007C089810F90DF91CF911F910F9108953F
:10049000F80100851185E5CFCF93DF931F92CDB78B
:1004A000DEB76983DC01ED91FC910280F381E02DE0
:1004B00041E050E0BE016F5F7F4F09950F90DF91E3
:1004C000CF91089583E08093E9008091F200882322
:1004D00019F08AE38093E8000895FC0184859585EE
:1004E00097FD0BC09FB7F89482E08093E90080915C
:1004F000F2009FBF90E0019608959FB7F89482E0C4
:100500008093E9008091F2009FBF90E008953FB78B
:10051000F89480913D0190913E01A0913F01B091EE
:10052000400126B5A89B05C02F3F19F00196A11DDB
:10053000B11D3FBFBA2FA92F982F8827820F911D79
:10054000A11DB11DBC01CD0142E0660F771F881FC0
:10055000991F4A95D1F70895DC01FB0112968C9101
:10056000129790E02481358182179307D1F491810D
:100570008081813A31F481E0913091F0933089F4B7
:1005800011C0813271F49B3021F482811F968C93CB
:1005900005C09A3031F4828150968C9381E00895A1
:1005A000089580E00895DC01FB0188E4808389E4FC
:1005B000818384E482831D969C911D979F709F5B2D
:1005C00093831D968D919C911E9724E09695879517
:1005D0002A95E1F78F708F5B848385E00895EF9211
:1005E000FF920F931F93CF93DF93FB01208121385C
:1005F00051F52381223239F5DC0112962C9130E03D
:100600004481558142175307F1F4EC010B851C8599
:10061000E12CF12C0115110591F0F801448155816F
:100620006281738180E80E94A7018F3FFFEF9F07DF
:1006300069F0E80EF91ED8010D911C91EBCF81E015
:100640008F87C70105C080E090E002C08FEF9FEF69
:10065000DF91CF911F910F91FF90EF900895CF936D
:10066000DF93CDB7DEB769970FB6F894DEBF0FBE44
:10067000CDBFFC01DB018C918F5F8C93BE016F5F5E
:100680007F4F89E1DB011D928A95E9F729E02983F3
:1006900084E08A8391E09D8383E08E832A8721E230
:1006A0002B879C879D879F8722E2288B27E02B8BB7
:1006B00025E02C8B8E8B20E430E0388F2F8B998FA8
:1006C00082818B8395858685998B8A8B83818068CF
:1006D0008D8B49E150E080E00E94A70169960FB63A
:1006E000F894DEBF0FBECDBFDF91CF910895FC011E
:1006F00082818F5BFB01808381E00895CF93DF933C
:100700001F92CDB7DEB7FC018485958597FD05C0A6
:100710002FEF3FEF358724870BC0CE0101960E9453
:100720001709019719F4898190E002C08FEF9FEFBC
:100730000F90DF91CF9108950F931F93CF93DF9385
:100740001F92CDB7DEB78C01FC018485958597FF9C
:100750000EC0CE0101960E941709019719F4298154
:1007600030E002C02FEF3FEFF80135872487F80112
:10077000848595850F90DF91CF911F910F910895FA
:100780001F920F920FB60F9211248F939F93809117
:10079000E1009091E100937F9093E10083FF0FC00F
:1007A0001092E90091E09093EB001092EC0092E33C
:1007B0009093ED001092660198E09093F00082FF14
:1007C00020C093E09093E9009091F200992319F0F2
:1007D0009AE39093E80090915101992339F0909118
:1007E0005101915090935101992389F190916501A4
:1007F000992339F090916501915090936501992367
:1008000041F184FF10C08091E2008E7E8160809370
:10081000E2008091E1008F7E8093E100809153019E
:100820008E7E806111C080FF16C08091E2008E7EB6
:1008300080618093E2008091E1008E7E8093E100F0
:10084000809153018E7E81608093530104C05D9A34
:10085000CDCF289AD6CF9F918F910F900FBE0F903A
:100860001F9018951F920F920FB60F921124CF92DE
:10087000DF92EF92FF920F931F932F933F934F932B
:100880005F936F937F938F939F93AF93BF93EF93F8
:10089000FF93CF93DF93CDB7DEB76C97DEBFCDBFAD
:1008A0001092E9008091E80083FFEDC168E0CE017D
:1008B00045960E94CE0182EF8093E8008D8987FFE4
:1008C00005C09091E80090FFFCCF03C09EEF90938D
:1008D000E800982F907609F0C6C09E892F89188D60
:1008E00091110CC0803829F4809154018093F1005B
:1008F00002C01092F1001092F10048C1422F50E066
:10090000512B913051F4811141C14130510509F011
:100910003DC1809154018D7F0BC0933061F48111F2
:1009200035C14130510509F031C1809154018260D7
:10093000809354012BC1953041F48091E80080FFF1
:10094000FCCF20682093E30021C1963009F05FC0FE
:10095000EB8CFC8C1092E9001092500110924F0128
:10096000123091F510924E0110924D010E941A0220
:1009700099E0BE016F5F7F4FDB01E92F1D92EA9581
:10098000E9F799831A8391E09E8390EA98879AEF1A
:10099000998720914F0130915001275F3F4F3C8351
:1009A0002B838D831092E9001092500110924F0119
:1009B000F0924E01E0924D0149E050E080E00E944B
:1009C000A7010E941A02E2C0F0924E01E0924D018E
:1009D0000E940602DC011296ED90FC901397E11440
:1009E000F10409F4C0C0D701ED91FC910480F581B8
:1009F000E02DBE016B5E7F4FC7010995009719F08E
:100A00000CF0C4C0C7C0F701E084F184E8CF973090
:100A100009F4C0C0983021F481E08093F100B6C0A1
:100A2000993009F0B3C0837009F0B4C0E1E0F1E09F
:100A300081E021E036E39081992361F08093E90021
:100A40002093EB0091919093EC003093ED008F5F39
:100A5000873089F78EE78093EA001092EA008F8949
:100A60008093660193C08B8D9C8D1092E90010924B
:100A7000500110924F0190934E0180934D01898D4A
:100A8000811156C08E899D89913A59F4813209F0BD
:100A900081C047E050E06BE071E080E00E94A70178
:100AA00075C0913209F076C0833289F4888D90E068
:100AB000982F88272F89822BA0E0B0E08093070130
:100AC00090930801A0930901B0930A015FC080329E
:100AD00069F48091E80082FFFCCF67E08BE091E051
:100AE0000E94CE018BEF8093E80006C0823209F0AD
:100AF0004DC08F898093120180915201882319F093
:100B0000EEEFFAE002C0E0E0F8E080910B01909196
:100B10000C01A0910D01B0910E01803B9440A10504
:100B2000B10509F07BC08091120180FF93C076C0AF
:100B30000E940602DC0112960D911C91139701157B
:100B4000110541F1D801ED91FC910190F081E02D6A
:100B5000BE016B5E7F4FC8010995811117C0F80176
:100B600000851185ECCF113009F44EC0133091F49B
:100B70008F89882309F445C0823081F440E860E120
:100B800081EC91E00E946A01882321F08EEF80932E
:100B9000E80079C081E28093EB0075C0813029F4D0
:100BA00040E86BE085EB91E0EDCF833099F70E9450
:100BB0000602DC011296ED90FC9013978E010F5FF8
:100BC0001F4F6801E114F10479F0D701ED91FC9118
:100BD0000680F781E02DB801C7010995080F111DA6
:100BE000F701E084F184EECFD8011C92F601019068
:100BF0000020E9F73197BF016C197D0940E0C6017B
:100C0000C1CF6FE971E002C063EA71E0611571055F
:100C100009F2FB01449150E080E840CF0FB6F89410
:100C2000A8958091600088618093600010926000B8
:100C30000FBEA895EE3F2AE0F20739F08091FE0A38
:100C40009091FF0A91838083A1CF1092FF0A1092A6
:100C5000FE0A9CCFEE3F8AE0F80731F08081918157
:100C60009093FF0A8093FE0A87E797E7918380833A
:100C70009BE088E10FB6F894A895809360000FBEC2
:100C80009093600083CF6C960FB6F894DEBF0FBED2
:100C9000CDBFDF91CF91FF91EF91BF91AF919F9128
:100CA0008F917F916F915F914F913F912F911F9104
:100CB0000F91FF90EF90DF90CF900F900FBE0F90AD
:100CC0001F90189590E0FC01E25CFE4F4491FC01FE
:100CD000E15EFE4F2491FC01E050FF4F8491882398
:100CE00009F44DC04423E1F150E0FA013197EF30AF
:100CF000F105B0F5EA5AFF4F0C94210F9091800056
:100D00009F7707C0909180009F7D03C090918000E5
:100D1000977F9093800024C094B59F7702C094B5CC
:100D20009F7D94BD1DC0909190009F7707C09091CA
:100D300090009F7D03C090919000977F90939000CA
:100D40000FC09091C0009F7703C09091C0009F7D1D
:100D50009093C00005C09091C200977F9093C2000D
:100D6000E82FF0E0EE0FFF1FEE50FF4FA591B4917A
:100D7000EC912E2381E090E021F480E0089580E062
:100D800090E00895CF93DF9390E0FC01E15EFE4F89
:100D90002491FC01E050FF4F8491882361F190E0A1
:100DA000880F991FFC01EC51FF4FC591D491FC01B4
:100DB000EA52FF4FA591B491611109C09FB7F89411
:100DC0008881209582238883EC912E230BC062308A
:100DD00061F49FB7F8943881822F809583238883AC
:100DE000EC912E2B2C939FBF06C08FB7F894E8810F
:100DF0002E2B28838FBFDF91CF910895823108F089
:100E00008251E82FF0E0E653FF4FE49180917B00A0
:100E1000E3FB222720F930E095E0220F331F9A955B
:100E2000E1F78F7D282B20937B00E770E064E0934F
:100E30007C0080917A00806480937A0080917A00AF
:100E400086FDFCCF809178002091790090E0922B74
:100E500008958F929F92AF92BF92CF92DF92EF92BE
:100E6000FF926B017C010E9487024B015C01C1145F
:100E7000D104E104F104F1F00E948702DC01CB010E
:100E800088199909AA09BB09883E9340A105B105B3
:100E900070F321E0C21AD108E108F10888EE880E4B
:100EA00083E0981EA11CB11CC114D104E104F1041B
:100EB00019F7DDCFFF90EF90DF90CF90BF90AF900C
:100EC0009F908F9008956F927F929F92AF92BF9262
:100ED000CF92DF92EF92FF920F931F93CF93DF9306
:100EE00000D01F92CDB7DEB7382F8B0180916601FD
:100EF000811103C08FEF9FEF8BC08091530180FF62
:100F000005C08091E00082608093E0003A01F12CFE
:100F10008AEFE82E832F8770C82E90E4B92E832F96
:100F20008072A82E832F8074982E2AE3D22E61140B
:100F3000710409F466C08FB7F894C092E9009091EB
:100F4000E80095FF05C09091F2002B2D291B01C0F0
:100F500020E08FBF211110C0EA94EE2059F261E029
:100F600070E080E090E039834A835B830E94290728
:100F700039814A815B81DBCF822F90E06816790648
:100F80000CF4262D6FB7F894C092E9008091E80028
:100F900085FF35C0822F90E0681A790AAA2029F0CF
:100FA0002150A8F01092F100FBCFF80137FF07C0E5
:100FB000215058F074917093F1003196F9CF21507F
:100FC00020F071917093F100FACF080F191FFF20E4
:100FD00019F0D092E8000BC08091E80085FD09C0AF
:100FE000D092E800FF24F3946114710441F0F12CD5
:100FF00006C06114710419F49110D092E8006FBF1B
:1010000096CFF11098CF5D9884E680935101CA0184
:101010000F900F900F90DF91CF911F910F91FF9044
:10102000EF90DF90CF90BF90AF909F907F906F90A8
:101030000895CF93DF93EC0180911201882331F062
:1010400083E00E9463071816190634F081E090E0EF
:101050009B838A8380E090E0DF91CF9108951F9277
:101060000F920FB60F9211242F933F938F939F935C
:10107000AF93BF938091390190913A01A0913B01C8
:10108000B0913C013091380123E0230F2D3720F43B
:101090000196A11DB11D05C026E8230F0296A11DD2
:1010A000B11D209338018093390190933A01A093A8
:1010B0003B01B0933C0180913D0190913E01A09194
:1010C0003F01B09140010196A11DB11D80933D01EA
:1010D00090933E01A0933F01B0934001BF91AF9127
:1010E0009F918F913F912F910F900FBE0F901F9066
:1010F0001895CF93DF93EC0181E08C838D839E0163
:10110000265F3F4F3F832E831986188627E131E003
:10111000398328831C861B861E861D868F87888BB5
:1011200081EC8A870E940602FC0121818C8190E07B
:10113000820F911D089774F5A281B381109719F45D
:10114000D383C2830CC018968D919C9119970097F8
:1011500011F0DC01F8CF1996DC93CE9318978081BB
:101160008A8381818B8390818D81890F808380E048
:101170009C81891778F4AE81BF81A80FB11D9C9125
:10118000A181B0E0A050BF4F9C9391819F5F91835C
:101190008F5FEECFDF91CF910895EF92FF920F9383
:1011A0001F93CF93DF931F92CDB7DEB78B017A01E8
:1011B0008091C801811107C087EB91E00E947908F6
:1011C00081E08093C80186E0898341E050E0BE0160
:1011D0006F5F7F4F8091BA010E94630797FD07C040
:1011E0008091BA01A701B80180640E9463070F9043
:1011F000DF91CF911F910F91FF90EF900895BC0167
:10120000009791F0FC0101900020E9F73197AF01C0
:10121000481B590BE0916701F09168010280F3814E
:10122000E02D87E691E0099480E090E00895FC01CC
:1012300080916601811103C08FEF9FEF08959FB7E2
:10124000F89482E08093E9002091F20030E01216D9
:10125000130614F421E030E02115310559F02898E7
:1012600084E6809365018091F10080838091F20093
:10127000882319F09FBFC90108958BE68093E80089
:10128000F9CFCF93DF93CDB7DEB7E9970FB6F894D8
:10129000DEBF0FBECDBF789484B5826084BD84B5B7
:1012A000816084BD85B5826085BD85B5816085BD61
:1012B00080916E00816080936E0010928100809119
:1012C00081008260809381008091810081608093A1
:1012D00081008091800081608093800080919100E6
:1012E0008260809391008091910081608093910051
:1012F000809190008160809390008091C100846013
:101300008093C1008091C10082608093C100809170
:10131000C10081608093C1008091C300816080938F
:10132000C3008091C00082608093C0008091C200A1
:1013300081608093C20080917A00846080937A00FB
:1013400080917A00826080937A0080917A00816037
:1013500080937A0080917A00806880937A0010925E
:10136000660110925401109253018091D700816060
:101370008093D70080EA8093D80089B5806189BDC9
:1013800089B5826089BD09B400FEFDCF61E070E0DF
:1013900080E090E00E9429078091D8008F7C8061D6
:1013A0008093D8008091E000807F8093E00080915E
:1013B000E1008E7E8093E1008DE08093E200559AFB
:1013C000209AEEEFFFE7859194918B3F9C4D19F4A5
:1013D00081E0809352018FEF9FEF9093740180938F
:1013E000730160E082E10E94C20660E083E10E9436
:1013F000C20682E10E94FE0690936401809363011D
:1014000083E10E94FE069093600180935F0110E0EB
:1014100062E0812F0E94C2061F5F1E30C9F78FE075
:10142000E2EDF1E0DF011D928A95E9F7E091D0014C
:10143000F091D1010190F081E02D4FE050E062ED9C
:1014400071E080ED91E009958AE0482E512C612CE5
:10145000712C81E00E9462064C0180E00E946206CD
:101460001C0182E00E946206EE24E394892B09F0BD
:10147000E12C83E00E946206FF24F394892B09F09B
:10148000F12C84E00E9462069BA38AA38CE00E9458
:1014900062069DA38CA388E00E9462069FA38EA390
:1014A00086E00E94620699A788A785E00E946206EE
:1014B0009BA78AA78DE00E9462069DA78CA787E064
:1014C0000E9462069FA78EA78BE00E94620699ABDE
:1014D00088AB89E00E9462069BAB8AAB8AE00E94DF
:1014E00062069DAB8CAB87E10E94FE068C0187E60D
:1014F00091E00E946D02892B09F44FC087E691E0CC
:101500000E947E03C19709F048C05801110FCC0812
:10151000DD08D7FE26C0E0916701F09168010190D7
:10152000F081E02D6DE287E691E0099522273327CF
:10153000A9012A193B094C095D0919A2FE01B196BE
:101540006F01CA01B901A30192010E94FF0E605D03
:10155000D6016E936D01211531054105510589F7BD
:1015600015C0A601950119A2FE01B1966F01CA012D
:10157000B901A30192010E94FF0E605DD6016E9336
:101580006D01211531054105510589F7C6010E94FC
:10159000FF0885E391E00E94FF088091E001807FD1
:1015A000892871F4E11002C0856001C086608093D3
:1015B000E001FF20E9F08091E001807F846016C0A7
:1015C000232871F4E11002C0816001C0886080931B
:1015D000E001FF2069F08091E001807F826006C019
:1015E000EE2011F0876002C0F11083608093E0016B
:1015F0008091D2019091D301A091D401B091D501F5
:10160000EAA1FBA1EF2B11F4816001C08E7F8093D2
:10161000D2019093D301A093D401B093D5018091CE
:10162000D2019091D301A091D401B091D5012CA108
:101630003DA1232B11F4826001C08D7F8093D201E4
:101640009093D301A093D401B093D5018091D2019E
:101650009091D301A091D401B091D501EEA1FFA149
:10166000EF2B11F4846001C08B7F8093D2019093A3
:10167000D301A093D401B093D5018091D201909170
:10168000D301A091D401B091D50128A539A5232B70
:1016900011F4886001C0877F8093D2019093D301B9
:1016A000A093D401B093D5018091D2019091D30140
:1016B000A091D401B091D501EAA5FBA5EF2B11F4BF
:1016C000806101C08F7E8093D2019093D301A0935B
:1016D000D401B093D5018091D2019091D301A09112
:1016E000D401B091D5012CA53DA5232B11F4806226
:1016F00001C08F7D8093D2019093D301A093D40138
:10170000B093D5018091D2019091D301A091D401E1
:10171000B091D501EEA5FFA5EF2B11F4806401C0B7
:101720008F7B8093D2019093D301A093D401B09387
:10173000D5018091D2019091D301A091D401B091B3
:10174000D50128A939A9232B11F4806801C08F770E
:101750008093D2019093D301A093D401B093D5018B
:101760008091D2019091D301A091D401B091D50183
:10177000EAA9FBA9EF2B11F4916001C09E7F809331
:10178000D2019093D301A093D401B093D50180915D
:10179000D2019091D301A091D401B091D5012CA98F
:1017A0003DA9232B11F4926001C09D7F8093D2014B
:1017B0009093D301A093D401B093D50182E10E940C
:1017C000FE0620916301309164018C01021B130B12
:1017D000109362010093610183E10E94FE06209153
:1017E0005F0130916001821B930B90935E018093A7
:1017F0005D01980117FF03C031952195310925300E
:10180000310524F4109262011092610197FF03C028
:10181000919581959109059724F410925E0110929B
:101820005D01E0906101F09062011E141F0464F4F8
:1018300080915B0190915C018E159F059CF4F09264
:101840005C01E0925B010EC0E114F10459F080915B
:10185000590190915A01E816F90624F4F0925A01C0
:10186000E092590100915D0110915E011016110680
:1018700064F48091570190915801801791079CF46E
:1018800010935801009357010EC00115110559F02E
:1018900080915501909156010817190724F410936F
:1018A00056010093550190915B0180915C01F7FC1A
:1018B00003C0692F782F04C06091590170915A01BB
:1018C00077FF03C0719561957109072E000C880B95
:1018D000990B0E94060E9B01AC01909157018091DB
:1018E000580117FD18C0692F782F77FF03C0719535
:1018F00061957109072E000C880B990B2EAB3FAB3D
:1019000048AF59AF0E94060E4B015C012EA93FA9BA
:1019100048AD59AD19C0609155017091560177FFDE
:1019200003C0719561957109072E000C880B990B06
:101930002EAB3FAB48AF59AF0E94060E4B015C0186
:1019400059AD48AD3FA92EA9B701FF0C880B990BE3
:101950002EAB3FAB48AF59AF0E94060E2EA93FA950
:1019600048AD59AD0E945C0D20E030E040E057E406
:101970000E94920E0E94CE0D7093D7016093D60103
:10198000B801110F880B990B0E94060EA501940156
:101990000E945C0D20E030E040E057E40E94920E8F
:1019A0000E94CE0D7093D9016093D801E091D001CF
:1019B000F091D1010190F081E02D4FE050E062ED17
:1019C00071E080ED91E0099560E570E080E090E0E5
:1019D0000E94290780E090E0892B09F43ACD0E940B
:1019E000000037CD10926A011092690188EE93E0F1
:1019F000A0E0B0E080936B0190936C01A0936D0127
:101A0000B0936E0183E291E0909368018093670147
:101A10008FEF9FEF909374018093730183E391E0C4
:101A20009093D1018093D0018091E701811113C07F
:101A30001092E2011092E10182ED91E09093E401B5
:101A40008093E30180E590E09093E6018093E501C7
:101A500081E08093E7018091C801811107C087EB85
:101A600091E00E94790881E08093C801E091C20171
:101A7000F091C301309739F481EE91E09093C30166
:101A80008093C2010AC080819181009711F0FC010E
:101A9000FACF81EE91E0918380832091E50130912E
:101AA000E6018091C4019091C501820F931F90932C
:101AB000C5018093C40108950E94700D0C94580EC6
:101AC0000E94510E58F00E944A0E40F029F45F3FE8
:101AD00029F00C94410E51110C948C0E0C94470E6D
:101AE0000E94690E68F39923B1F3552391F3951B76
:101AF000550BBB27AA2762177307840738F09F5F2F
:101B00005F4F220F331F441FAA1FA9F335D00E2E9B
:101B10003AF0E0E832D091505040E695001CCAF708
:101B20002BD0FE2F29D0660F771F881FBB1F2617CB
:101B300037074807AB07B0E809F0BB0B802DBF01A2
:101B4000FF2793585F4F3AF09E3F510578F00C9471
:101B5000410E0C948C0E5F3FE4F3983ED4F38695CF
:101B600077956795B795F7959F5FC9F7880F911D92
:101B70009695879597F90895E1E0660F771F881F7E
:101B8000BB1F621773078407BA0720F0621B730B31
:101B9000840BBA0BEE1F88F7E09508950E94D50DCF
:101BA0006894B1110C948C0E08950E94710E88F007
:101BB0009F5798F0B92F9927B751B0F0E1F0660F11
:101BC000771F881F991F1AF0BA95C9F714C0B13052
:101BD00091F00E948B0EB1E008950C948B0E672F4C
:101BE000782F8827B85F39F0B93FCCF38695779581
:101BF0006795B395D9F73EF490958095709561956A
:101C00007F4F8F4F9F4F0895E89409C097FB3EF494
:101C100090958095709561957F4F8F4F9F4F992339
:101C2000A9F0F92F96E9BB279395F69587957795B7
:101C30006795B795F111F8CFFAF4BB0F11F460FF77
:101C40001BC06F5F7F4F8F4F9F4F16C0882311F0CF
:101C500096E911C0772321F09EE8872F762F05C0E3
:101C6000662371F096E8862F70E060E02AF09A957E
:101C7000660F771F881FDAF7880F9695879597F973
:101C8000089597F99F6780E870E060E008959FEFFE
:101C900080EC089500240A94161617061806090603
:101CA000089500240A9412161306140605060895D2
:101CB000092E0394000C11F4882352F0BB0F40F45A
:101CC000BF2B11F460FF04C06F5F7F4F8F4F9F4F9A
:101CD000089557FD9058440F551F59F05F3F71F01C
:101CE0004795880F97FB991F61F09F3F79F0879583
:101CF0000895121613061406551FF2CF4695F1DF0C
:101D000008C0161617061806991FF1CF869571059B
:101D1000610508940895E894BB2766277727CB01CF
:101D200097F908950E94A50E0C94580E0E944A0E31
:101D300038F00E94510E20F0952311F00C94410EC2
:101D40000C94470E11240C948C0E0E94690E70F3B3
:101D5000959FC1F3950F50E0551F629FF001729F50
:101D6000BB27F00DB11D639FAA27F00DB11DAA1F5F
:101D7000649F6627B00DA11D661F829F2227B00DAC
:101D8000A11D621F739FB00DA11D621F839FA00D37
:101D9000611D221F749F3327A00D611D231F849F87
:101DA000600D211D822F762F6A2F11249F575040DE
:101DB0009AF0F1F088234AF0EE0FFF1FBB1F661F59
:101DC000771F881F91505040A9F79E3F510580F022
:101DD0000C94410E0C948C0E5F3FE4F3983ED4F3C8
:101DE000869577956795B795F795E7959F5FC1F7C6
:101DF000FE2B880F911D9695879597F90895A1E27E
:101E00001A2EAA1BBB1BFD010DC0AA1FBB1FEE1F74
:101E1000FF1FA217B307E407F50720F0A21BB30BBF
:101E2000E40BF50B661F771F881F991F1A9469F73B
:101E300060957095809590959B01AC01BD01CF0197
:101E40000895EE0FFF1F0590F491E02D0994F8948A
:021E5000FFCFC2
:101E520000C18081000000FFFFFFFF00E1000000E1
:101E620000000000000000AC022F03EF02D30200CA
:101E72000000004C0219086D027E039C03620200FE
:081E8200000000CD080D0A006C
:00000001FF
